S00C0000546573742E7372656378
S113000012C021C020C01FC01EC01DC01CC01BC008
S11300101AC019C018C017C016C015C014C013C028
S113002012C011C010C011241FBECFE5D4E0DEBF42
S1130030CDBF20E0A0E6B0E001C01D92A236B20719
S1130040E1F702D01DC0DCCF809160009091610087
S1130050019690936100809360008091600090917C
S1130060610001969093610080936000809160002C
S11300709091610001969093610080936000E4CFB9
S1070080F894FFCF1E
S9030000FC
