:020000020000FC
:1000000068C018951895189518951895189518950D
:10001000189513C018951895189518951895189552
:100020001895189518958F01100219021A021B02D3
:100030001C021D021E021F0220022F936F9325E453
:1000400022BF2FB76F937F938F939F93662771E0A3
:100050008091640090916500870F961F80936400E3
:10006000909365009F918F917F916F91652F607341
:10007000A1F06F937F938F939F93662771E0809198
:10008000620090916300870F961F809362009093A7
:1000900063009F918F917F916F91652F6074A9F09C
:1000A00055FD6F937F938F939F93662771E08091A7
:1000B000600090916100870F961F8093600090937D
:1000C00061009F918F917F916F912FBF6F912F91C1
:1000D0001895662777278827992744275527332798
:1000E000E0E6F0E060E061936FE5E617D9F764E0E1
:1000F000F617C1F76FE56DBF64E06EBF6F936FEFEA
:1001000064BB6F916F9360E065BB6F916F9360E02C
:1001100067BB6F916F936FEF68BB6F916F936FEFDA
:1001200061BB6F916F9360E062BB6F9140E03F9362
:1001300032E0C7D03F913F9338E0C3D03F913F9327
:100140003CE0BFD03F913F9336E0BBD03F913F931F
:1001500031E0B7D03F916F937F938F9368E572E062
:1001600080E0615070408040E0F78F917F916F9107
:100170006F9360E068BB6F916F9361EC67BB6F91A9
:100180006F9361E063BF6F916F9361E060BF6F91A8
:100190006F9361E069BF6F91789400C0AF93BF9394
:1001A000A0916400B0916500AC3D40F0B53030F0F6
:1001B000AA27A0936400A09365005160BF91AF91FE
:1001C0000000AF93BF9353FF08C0A0916000B091AF
:1001D0006100A43F10F0B13000F0BF91AF9150FD2D
:1001E00007D051FD29D052FD2DD053FD31D0D6CFAF
:1001F00022B3239522BB5E7F3F9331E062D03F91D3
:100200006F937F938F9368E572E080E06150704058
:100210008040E0F78F917F916F9100E0142F110FD4
:10022000E3E1F0E0EE0FFF1FE10FF01FA591B491A5
:10023000EA2FFB2F099508955D7F3F9331E411D09C
:100240003F9108955B7F3F9332E40BD03F91089537
:100250003F9333E406D03F91577F403009F441E0AB
:1002600008956F93632F62956F70660F660F6360DA
:1002700065BB00006C7F65BB6F937F938F9368E2D3
:1002800070E080E0615070408040E0F78F917F9196
:100290006F91632F6F70660F660F636065BB000020
:1002A0006C7F65BB6F937F938F9368E270E080E013
:1002B000615070408040E0F78F917F916F916F9116
:1002C0000895632F62956F70660F660F626065BB5D
:1002D00000006D7F65BB6F937F938F9368E270E042
:1002E00080E0615070408040E0F78F917F916F9186
:1002F000632F6F70660F660F626065BB00006D7FD5
:1003000065BB6F937F938F9368E270E080E06150EC
:1003100070408040E0F78F917F916F9108953F93F7
:100320003DE49FDF3F913F9330E39BDF3F913F935D
:100330003DE497DF3F913F9331E393DF3F913F935C
:100340003DE48FDF3F913F9332E38BDF3F913F935B
:100350003DE487DF3F913F9333E383DF3F913F935A
:100360003DE47FDF3F913F9334E37BDF3F913F9359
:100370003DE477DF3F913F9335E373DF3F913F9358
:100380003DE46FDF3F913F9336E36BDF3F913F9357
:1003900030EC97DF3F913F9330E263DF3F9130B322
:1003A0003170305D5EDF3F9330E25BDF3F9130B311
:1003B00032703695305D55DF3F9330E252DF3F912A
:1003C00030B3347036953695305D4BDF3F9330E275
:1003D00048DF3F9130B33870369536953695305DAD
:1003E00040DF3F9330E23DDF3F9130B330713295D3
:1003F000305D37DF3F9330E234DF3F9130B330720E
:1004000032953695305D2DDF3F9330E22ADF3F9104
:1004100030B33074329536953695305D22DF0895CD
:100420003F933CE41EDF3F913F9331E31ADF3F915E
:1004300008950895089508950895089508950895D4
:0204400008951D
:00000001FF
