:020000020000FC
:100000007FC01895189518951895189518951895F6
:10001000189526C01895189518951895189518953F
:100020001895189518952503A5034A04FD040E0597
:100030001F05300541055205630570057B058C05DC
:10004000CD05CF05D105D305D505D705D905DB05E8
:10005000E605F105FC05070612061D06280633060F
:100060001F936F9315E412BF1FB76F937F938F9306
:100070009F932F93662771E080917000909171009B
:1000800020917200870F961F261F80937000909317
:100090007100209372002F919F918F917F916F91AA
:1000A0006F937F938F939F93662771E080916D008C
:1000B00090916E00870F961F80936D0090936E0055
:1000C0009F918F917F916F91652F6074A9F0C09976
:1000D0006F937F938F939F93662771E08091690060
:1000E00090916A00870F961F8093690090936A0031
:1000F0009F918F917F916F911FBF6F911F91189565
:100100006627772788279927442755273327E0E64E
:10011000F0E060E061936FE5E617D9F764E0F61769
:10012000C1F76FE56DBF64E06EBF6FEF162E002460
:1001300011242224332400E0302E44245524662444
:10014000772488249924AA24BB24CC24DD24EE24FB
:10015000FF246F936FEF64BB6F916F9360E065BB9B
:100160006F916F9360E067BB6F916F936FEF68BBA8
:100170006F916F936FEF61BB6F916F9360E062BBA4
:100180006F9140E03F9332E030D23F913F9338E0AF
:100190002CD23F913F933CE028D23F913F9336E0F1
:1001A00024D23F913F9331E020D23F916F937F93D0
:1001B0008F9368E572E080E0615070408040E0F726
:1001C0008F917F916F916F9361E063BF6F916F9398
:1001D00061E060BF6F916F9361E069BF6F91789448
:1001E00000C0609170007091710080917200603069
:1001F00028F0703618F0803009F401C0D3C06627AB
:100200006093700060937100609372006F937F93AE
:100210008F939F93662771E0809173009091740093
:10022000870F961F80937300909374009F918F9116
:100230007F916F91A0917300B0917400909B0DC05D
:10024000A130B9F4B030A9F490986F936627609309
:100250007300609374006F910CC0A13051F4B03002
:1002600041F4909A6F9366276093730060937400D3
:100270006F916F937F938F939F93662771E0809127
:10028000750090917600870F961F8093750090936C
:1002900076009F918F917F916F91A0917500B091A1
:1002A0007600919B0DC0A130B9F4B030A9F49198BB
:1002B0006F93662760937500609376006F910CC012
:1002C000A23051F4B03041F4919A6F936627609355
:1002D0007500609376006F916F937F938F939F93D8
:1002E000662771E08091770090917800870F961FC4
:1002F00080937700909378009F918F917F916F9179
:10030000A0917700B0917800929B0DC0A130B9F414
:10031000B030A9F492986F9366276093770060934A
:1003200078006F910CC0A33051F4B03041F4929A30
:100330006F93662760937700609378006F916F9357
:100340007F938F939F93662771E0809179009091BE
:100350007A00870F961F8093790090937A009F917F
:100360008F917F916F91A0917900B0917A00939BCA
:100370000DC0A130B9F4B030A9F493986F936627FB
:100380006093790060937A006F910CC0A13051F4B2
:10039000B03041F4939A6F9366276093790060932D
:1003A0007A006F91AF93BF93A0916D00B0916E00F2
:1003B000A43F40F0B13030F0AA27A0936D00A09385
:1003C0006E005160BF91AF9100C057FDE1F454FD44
:1003D00003C055FD07C00CC066B36670643001F5FC
:1003E00050681EC066B366706230D1F4506818C0A1
:1003F00066B36670623019F0643019F011C0506154
:100400000FC050620DC0B19B0BC0B29B09C054FF1E
:1004100002C05F76526055FF03C05F75546000C034
:1004200056FF10C000C0B09B18C0A0916900B091E9
:100430006A00AF3490F0B13009F078F05F7B58601B
:100440000CC00BC0B09909C06F9366276093690018
:1004500060936A006F91506400C050FD04D053FD5A
:1004600084D022D0BECE5E7F3F9331E0BED03F919C
:100470006F937F938F9368E572E080E061507040E6
:100480008040E0F78F917F916F9100E0142F110F62
:10049000E3E1F0E0EE0FFF1FE10FF01FA591B49133
:1004A000EA2FFB2F09950895403009F001C05CC088
:1004B00051FD03C052FD04C057C05D7F91E003C0F1
:1004C0005B7F9FEF00C06091640060FD69F1609107
:1004D000660070916700809168008395691B609346
:1004E0006600681759F06F3F09F00FC0609168000F
:1004F000609366006A956093670007C060E0609350
:10050000660060E06093670000C0671B6F3F19F0F2
:10051000623029F029C07A957093670025C07395E1
:100520007093670021C020C06091600070916100ED
:10053000913009F00EC0603009F003C07030A1F0B6
:1005400000C080E06150680B6093600070936100B0
:100550000BC081E0680F80E0681F609360007093BB
:10056000610002C001C000C00895577F00E0142F51
:10057000110FEDE1F0E0EE0FFF1FE10FF01FA5916D
:10058000B491EA2FFB2F099508956F93632F62951D
:100590006F70660F660F636065BB00006C7F65BBA4
:1005A0006F937F938F9368E270E080E061507040BA
:1005B0008040E0F78F917F916F91632F6F70660F8E
:1005C000660F636065BB00006C7F65BB6F937F93B4
:1005D0008F9368E270E080E0615070408040E0F707
:1005E0008F917F916F916F9108956F93632F6295B3
:1005F0006F70660F660F626065BB00006D7F65BB44
:100600006F937F938F9368E270E080E06150704059
:100610008040E0F78F917F916F91632F6F70660F2D
:10062000660F626065BB00006D7F65BB6F937F9353
:100630008F9368E270E080E0615070408040E0F7A6
:100640008F917F916F916F9108953F933DE49DDF6E
:100650003F913F9330E399DF3F913F933DE495DF36
:100660003F913F9331E391DF3F913F933DE48DDF35
:100670003F913F9332E389DF3F913F933DE485DF34
:100680003F913F9333E381DF3F913F933DE47DDF33
:100690003F913F9334E379DF3F913F933DE475DF32
:1006A0003F913F9335E371DF3F913F933DE46DDF31
:1006B0003F913F9336E369DF3F913F9330EC95DF05
:1006C0003F913F9330E261DF3F9130B33170305D55
:1006D0005CDF3F9330E259DF3F9130B332703695A3
:1006E000305D53DF3F9330E250DF3F9130B33470E1
:1006F00036953695305D49DF3F9330E246DF3F91D6
:1007000030B33870369536953695305D3EDF3F9381
:1007100030E23BDF3F9130B330713295305D35DFF1
:100720003F9330E232DF3F9130B3307232953695ED
:10073000305D2BDF3F9330E228DF3F9130B33074E0
:1007400032953695305D21DF089560916700809184
:100750006600663008F001C06EC0663009F089F5A9
:10076000681729F03F9330E210DF3F9105C03F93B7
:100770003EE30BDF3F9100C03F933DE406DF3F9136
:100780003F9336E302DF3F913F9330EC2EDF3F9102
:10079000681729F43F9330E2F8DE3F9105C03F939C
:1007A0003EE3F3DE3F9100C03F9337E5EEDE3F913D
:1007B0003F933AE3EADE3F9130916500305DE5DE3C
:1007C00068C0681729F03F9330E2DFDE3F9105C033
:1007D0003F933EE3DADE3F9100C03F9337E5D5DE3D
:1007E0003F913F933AE3D1DE3F9130916500305D18
:1007F000CCDE3F9330ECF9DE3F91681729F43F934C
:1008000030E2C3DE3F9105C03F933EE3BEDE3F9141
:1008100000C03F9335E4B9DE3F913F9338E7B5DE42
:100820003F913F9339E6B1DE3F913F9334E7ADDE30
:100830003F912FC02EC0681729F03F9330E2A5DE0C
:100840003F9105C03F933EE3A0DE3F9100C03F9340
:100850003DE49BDE3F91762F705D372F96DE3F9310
:1008600030ECC3DE3F9100C0681729F43F9330E2BB
:100870008CDE3F9105C03F933EE387DE3F9100C091
:100880003F933DE482DE3F91762F7F5C372F7DDE04
:1008900000C008953F933DE478DE3F913F9330E3FD
:1008A00074DE3F913F9330E270DE3F913F9330E240
:1008B0006CDE3F913F9334E568DE3F913F9331E337
:1008C00064DE3F913F933DE360DE3F91A2E0B3E001
:1008D000A05DE6E0F9E0E32F58DEF32F56DE3F930C
:1008E00038E653DE3F91B05DE6E0F9E0E32F4DDE00
:1008F000F32F4BDE3F933DE648DE3F9119C0A2E067
:10090000B3E0A05DE6E0F9E0E32F3FDEF32F3DDE4C
:100910003F9338E63ADE3F91B05DE6E0F9E0E32F41
:1009200034DEF32F32DE3F933DE62FDE3F9100C0F1
:100930003F9330EC5ADE3F913F9337E526DE3F91FF
:100940003F933AE322DE3F91A2E0B3E065E4632FF8
:100950001CDE04C065E4632F18DE00C03F9330E264
:1009600014DE3F913F9334E510DE3F913F9332E335
:100970000CDE3F913F933DE308DE3F91A2E0B3E000
:10098000A05DE6E0F9E0E32F00DEF32FFEDD3F930C
:1009900038E6FBDD3F91B05DE6E0F9E0E32FF5DD01
:1009A000F32FF3DD3F933DE6F0DD3F9119C0A2E068
:1009B000B3E0A05DE6E0F9E0E32FE7DDF32FE5DD4E
:1009C0003F9338E6E2DD3F91B05DE6E0F9E0E32FEA
:1009D000DCDDF32FDADD3F933DE6D7DD3F9100C04C
:1009E00030916600305DE6E0F9E0CFDD30916400E3
:1009F000305DE6E0F9E0C9DD08953F9339E4C5DDF7
:100A00003F913F933EE6C1DD3F913F933DE4BDDD25
:100A10003F913F9331E3B9DD3F9108953F9339E42E
:100A2000B4DD3F913F933EE6B0DD3F913F933DE41F
:100A3000ACDD3F913F9332E3A8DD3F9108953F93B2
:100A400039E4A3DD3F913F933EE69FDD3F913F9325
:100A50003DE49BDD3F913F9333E397DD3F91089564
:100A60003F9339E492DD3F913F933EE68EDD3F9127
:100A70003F933DE48ADD3F913F9334E386DD3F9130
:100A800008953F9339E481DD3F913F933EE67DDD5C
:100A90003F913F933DE479DD3F913F9335E375DD31
:100AA0003F9108953F9339E470DD3F913F933EE6D7
:100AB0006CDD3F913F933DE468DD3F913F9336E32A
:100AC00064DD3F9108953F9339E45FDD3F913F93AB
:100AD0003EE65BDD3F913F9337E557DD3F9108955B
:100AE00060E06093660060E06093670068E0609398
:100AF000680041E008956091660000E0162F110F34
:100B0000E7E2F0E0EE0FFF1FE10FF01FA591B491B7
:100B1000EA2FFB2F0995089560916400613041F43C
:100B200060E060936400E0916200F091630034C083
:100B300060916600603031F0613071F06230B1F088
:100B40006330F1F061E06093640061E860936200FB
:100B500060E06093630020C061E0609364006FE830
:100B60006093620060E06093630016C061E0609390
:100B700064006FE66093620060E0609363000CC005
:100B800041E060E06093660060E06093670068E0C9
:100B90006093680001C000C0089541E0089541E0FD
:100BA000089541E0089541E0089541E0089541E04D
:100BB000089541E0089560E06093660060E060930E
:100BC000670063E06093680042E0089560E060932E
:100BD000660060E06093670063E06093680043E054
:100BE000089560E06093660060E06093670063E0F2
:100BF0006093680044E0089560E06093660060E000
:100C00006093670063E06093680045E0089560E0EA
:100C10006093660060E06093670063E06093680043
:100C200046E0089560E06093660060E060936700CE
:100C300063E06093680047E0089560E060936600B9
:100C400060E06093670063E06093680048E00895A7
:100C500060E06093660060E06093670061E060932D
:0A0C6000680049E0089540E008959F
:00000001FF
